{
  "_format": "hh-sol-artifact-1",
  "contractName": "Daoathon",
  "sourceName": "contracts/Daoathon.sol",
  "abi": [
    {
      "inputs": [],
      "stateMutability": "nonpayable",
      "type": "constructor"
    },
    {
      "anonymous": false,
      "inputs": [
        {
          "indexed": true,
          "internalType": "address",
          "name": "owner",
          "type": "address"
        },
        {
          "indexed": true,
          "internalType": "address",
          "name": "approved",
          "type": "address"
        },
        {
          "indexed": true,
          "internalType": "uint256",
          "name": "tokenId",
          "type": "uint256"
        }
      ],
      "name": "Approval",
      "type": "event"
    },
    {
      "anonymous": false,
      "inputs": [
        {
          "indexed": true,
          "internalType": "address",
          "name": "owner",
          "type": "address"
        },
        {
          "indexed": true,
          "internalType": "address",
          "name": "operator",
          "type": "address"
        },
        {
          "indexed": false,
          "internalType": "bool",
          "name": "approved",
          "type": "bool"
        }
      ],
      "name": "ApprovalForAll",
      "type": "event"
    },
    {
      "anonymous": false,
      "inputs": [
        {
          "indexed": false,
          "internalType": "address",
          "name": "account",
          "type": "address"
        }
      ],
      "name": "Paused",
      "type": "event"
    },
    {
      "anonymous": false,
      "inputs": [
        {
          "indexed": true,
          "internalType": "address",
          "name": "from",
          "type": "address"
        },
        {
          "indexed": true,
          "internalType": "address",
          "name": "to",
          "type": "address"
        },
        {
          "indexed": true,
          "internalType": "uint256",
          "name": "tokenId",
          "type": "uint256"
        }
      ],
      "name": "Transfer",
      "type": "event"
    },
    {
      "anonymous": false,
      "inputs": [
        {
          "indexed": false,
          "internalType": "address",
          "name": "account",
          "type": "address"
        }
      ],
      "name": "Unpaused",
      "type": "event"
    },
    {
      "inputs": [],
      "name": "admin",
      "outputs": [
        {
          "internalType": "address",
          "name": "",
          "type": "address"
        }
      ],
      "stateMutability": "view",
      "type": "function"
    },
    {
      "inputs": [
        {
          "internalType": "address",
          "name": "to",
          "type": "address"
        },
        {
          "internalType": "uint256",
          "name": "tokenId",
          "type": "uint256"
        }
      ],
      "name": "approve",
      "outputs": [],
      "stateMutability": "nonpayable",
      "type": "function"
    },
    {
      "inputs": [
        {
          "internalType": "address",
          "name": "owner",
          "type": "address"
        }
      ],
      "name": "balanceOf",
      "outputs": [
        {
          "internalType": "uint256",
          "name": "",
          "type": "uint256"
        }
      ],
      "stateMutability": "view",
      "type": "function"
    },
    {
      "inputs": [],
      "name": "burnNft",
      "outputs": [],
      "stateMutability": "nonpayable",
      "type": "function"
    },
    {
      "inputs": [],
      "name": "contractURI",
      "outputs": [
        {
          "internalType": "string",
          "name": "",
          "type": "string"
        }
      ],
      "stateMutability": "view",
      "type": "function"
    },
    {
      "inputs": [],
      "name": "contractUriJson",
      "outputs": [
        {
          "internalType": "string",
          "name": "",
          "type": "string"
        }
      ],
      "stateMutability": "view",
      "type": "function"
    },
    {
      "inputs": [],
      "name": "externalUrl",
      "outputs": [
        {
          "internalType": "string",
          "name": "",
          "type": "string"
        }
      ],
      "stateMutability": "view",
      "type": "function"
    },
    {
      "inputs": [
        {
          "internalType": "uint256",
          "name": "tokenId",
          "type": "uint256"
        }
      ],
      "name": "getApproved",
      "outputs": [
        {
          "internalType": "address",
          "name": "",
          "type": "address"
        }
      ],
      "stateMutability": "view",
      "type": "function"
    },
    {
      "inputs": [],
      "name": "hashMsgSender",
      "outputs": [
        {
          "internalType": "uint256",
          "name": "",
          "type": "uint256"
        }
      ],
      "stateMutability": "view",
      "type": "function"
    },
    {
      "inputs": [
        {
          "internalType": "address",
          "name": "owner",
          "type": "address"
        },
        {
          "internalType": "address",
          "name": "operator",
          "type": "address"
        }
      ],
      "name": "isApprovedForAll",
      "outputs": [
        {
          "internalType": "bool",
          "name": "",
          "type": "bool"
        }
      ],
      "stateMutability": "view",
      "type": "function"
    },
    {
      "inputs": [],
      "name": "mintNft",
      "outputs": [],
      "stateMutability": "nonpayable",
      "type": "function"
    },
    {
      "inputs": [],
      "name": "name",
      "outputs": [
        {
          "internalType": "string",
          "name": "",
          "type": "string"
        }
      ],
      "stateMutability": "view",
      "type": "function"
    },
    {
      "inputs": [
        {
          "internalType": "uint256",
          "name": "tokenId",
          "type": "uint256"
        }
      ],
      "name": "ownerOf",
      "outputs": [
        {
          "internalType": "address",
          "name": "",
          "type": "address"
        }
      ],
      "stateMutability": "view",
      "type": "function"
    },
    {
      "inputs": [],
      "name": "pause",
      "outputs": [],
      "stateMutability": "nonpayable",
      "type": "function"
    },
    {
      "inputs": [],
      "name": "paused",
      "outputs": [
        {
          "internalType": "bool",
          "name": "",
          "type": "bool"
        }
      ],
      "stateMutability": "view",
      "type": "function"
    },
    {
      "inputs": [
        {
          "internalType": "address",
          "name": "from",
          "type": "address"
        },
        {
          "internalType": "address",
          "name": "to",
          "type": "address"
        },
        {
          "internalType": "uint256",
          "name": "tokenId",
          "type": "uint256"
        }
      ],
      "name": "safeTransferFrom",
      "outputs": [],
      "stateMutability": "nonpayable",
      "type": "function"
    },
    {
      "inputs": [
        {
          "internalType": "address",
          "name": "from",
          "type": "address"
        },
        {
          "internalType": "address",
          "name": "to",
          "type": "address"
        },
        {
          "internalType": "uint256",
          "name": "tokenId",
          "type": "uint256"
        },
        {
          "internalType": "bytes",
          "name": "data",
          "type": "bytes"
        }
      ],
      "name": "safeTransferFrom",
      "outputs": [],
      "stateMutability": "nonpayable",
      "type": "function"
    },
    {
      "inputs": [
        {
          "internalType": "address",
          "name": "operator",
          "type": "address"
        },
        {
          "internalType": "bool",
          "name": "approved",
          "type": "bool"
        }
      ],
      "name": "setApprovalForAll",
      "outputs": [],
      "stateMutability": "nonpayable",
      "type": "function"
    },
    {
      "inputs": [
        {
          "internalType": "string",
          "name": "jsonCid",
          "type": "string"
        }
      ],
      "name": "setContractUriJson",
      "outputs": [],
      "stateMutability": "nonpayable",
      "type": "function"
    },
    {
      "inputs": [
        {
          "internalType": "string",
          "name": "_externalUrl",
          "type": "string"
        }
      ],
      "name": "setExternalUrl",
      "outputs": [],
      "stateMutability": "nonpayable",
      "type": "function"
    },
    {
      "inputs": [
        {
          "internalType": "string",
          "name": "imageCid",
          "type": "string"
        }
      ],
      "name": "setTokenUriImage",
      "outputs": [],
      "stateMutability": "nonpayable",
      "type": "function"
    },
    {
      "inputs": [
        {
          "internalType": "bytes4",
          "name": "interfaceId",
          "type": "bytes4"
        }
      ],
      "name": "supportsInterface",
      "outputs": [
        {
          "internalType": "bool",
          "name": "",
          "type": "bool"
        }
      ],
      "stateMutability": "view",
      "type": "function"
    },
    {
      "inputs": [],
      "name": "symbol",
      "outputs": [
        {
          "internalType": "string",
          "name": "",
          "type": "string"
        }
      ],
      "stateMutability": "view",
      "type": "function"
    },
    {
      "inputs": [],
      "name": "tokenIds",
      "outputs": [
        {
          "internalType": "uint256",
          "name": "",
          "type": "uint256"
        }
      ],
      "stateMutability": "view",
      "type": "function"
    },
    {
      "inputs": [
        {
          "internalType": "uint256",
          "name": "tokenId",
          "type": "uint256"
        }
      ],
      "name": "tokenURI",
      "outputs": [
        {
          "internalType": "string",
          "name": "",
          "type": "string"
        }
      ],
      "stateMutability": "view",
      "type": "function"
    },
    {
      "inputs": [],
      "name": "tokenUriImage",
      "outputs": [
        {
          "internalType": "string",
          "name": "",
          "type": "string"
        }
      ],
      "stateMutability": "view",
      "type": "function"
    },
    {
      "inputs": [
        {
          "internalType": "address",
          "name": "newAdmin",
          "type": "address"
        }
      ],
      "name": "transferAdminship",
      "outputs": [],
      "stateMutability": "nonpayable",
      "type": "function"
    },
    {
      "inputs": [
        {
          "internalType": "address",
          "name": "from",
          "type": "address"
        },
        {
          "internalType": "address",
          "name": "to",
          "type": "address"
        },
        {
          "internalType": "uint256",
          "name": "tokenId",
          "type": "uint256"
        }
      ],
      "name": "transferFrom",
      "outputs": [],
      "stateMutability": "nonpayable",
      "type": "function"
    },
    {
      "inputs": [],
      "name": "unpause",
      "outputs": [],
      "stateMutability": "nonpayable",
      "type": "function"
    }
  ],
  "bytecode": "0x60806040526040518060600160405280603581526020016200448660359139600990816200002e919062000401565b506040518060600160405280603581526020016200445160359139600a908162000059919062000401565b50604051806060016040528060248152602001620044bb60249139600b908162000084919062000401565b503480156200009257600080fd5b506040518060400160405280601181526020017f44414f2d412d54484f4e20506c617965720000000000000000000000000000008152506040518060400160405280600381526020017f4441540000000000000000000000000000000000000000000000000000000000815250816000908162000110919062000401565b50806001908162000122919062000401565b5050506000600660006101000a81548160ff02191690831515021790555033600860006101000a81548173ffffffffffffffffffffffffffffffffffffffff021916908373ffffffffffffffffffffffffffffffffffffffff160217905550620004e8565b600081519050919050565b7f4e487b7100000000000000000000000000000000000000000000000000000000600052604160045260246000fd5b7f4e487b7100000000000000000000000000000000000000000000000000000000600052602260045260246000fd5b600060028204905060018216806200020957607f821691505b6020821081036200021f576200021e620001c1565b5b50919050565b60008190508160005260206000209050919050565b60006020601f8301049050919050565b600082821b905092915050565b600060088302620002897fffffffffffffffffffffffffffffffffffffffffffffffffffffffffffffffff826200024a565b6200029586836200024a565b95508019841693508086168417925050509392505050565b6000819050919050565b6000819050919050565b6000620002e2620002dc620002d684620002ad565b620002b7565b620002ad565b9050919050565b6000819050919050565b620002fe83620002c1565b620003166200030d82620002e9565b84845462000257565b825550505050565b600090565b6200032d6200031e565b6200033a818484620002f3565b505050565b5b8181101562000362576200035660008262000323565b60018101905062000340565b5050565b601f821115620003b1576200037b8162000225565b62000386846200023a565b8101602085101562000396578190505b620003ae620003a5856200023a565b8301826200033f565b50505b505050565b600082821c905092915050565b6000620003d660001984600802620003b6565b1980831691505092915050565b6000620003f18383620003c3565b9150826002028217905092915050565b6200040c8262000187565b67ffffffffffffffff81111562000428576200042762000192565b5b620004348254620001f0565b6200044182828562000366565b600060209050601f83116001811462000479576000841562000464578287015190505b620004708582620003e3565b865550620004e0565b601f198416620004898662000225565b60005b82811015620004b3578489015182556001820191506020850194506020810190506200048c565b86831015620004d35784890151620004cf601f891682620003c3565b8355505b6001600288020188555050505b505050505050565b613f5980620004f86000396000f3fe608060405234801561001057600080fd5b50600436106101cf5760003560e01c8063714cff5611610104578063c2229fea116100a2578063e8a3d48511610071578063e8a3d485146104bc578063e985e9c5146104da578063ea3c24301461050a578063f851a44014610526576101cf565b8063c2229fea14610448578063c87b56dd14610452578063d9dfb4ad14610482578063e19ea0d81461049e576101cf565b80638fc73484116100de5780638fc73484146103d457806395d89b41146103f2578063a22cb46514610410578063b88d4fde1461042c576101cf565b8063714cff561461038e57806379422c9f146103ac5780638456cb59146103ca576101cf565b806326d58ad3116101715780635be7cc161161014b5780635be7cc16146102f45780635c975abb146103105780636352211e1461032e57806370a082311461035e576101cf565b806326d58ad3146102b25780633f4ba83a146102ce57806342842e0e146102d8576101cf565b8063095ea7b3116101ad578063095ea7b3146102525780631d39e32d1461026e57806323b13ef91461028c57806323b872dd14610296576101cf565b806301ffc9a7146101d457806306fdde0314610204578063081812fc14610222575b600080fd5b6101ee60048036038101906101e9919061251a565b610544565b6040516101fb9190612562565b60405180910390f35b61020c610626565b604051610219919061260d565b60405180910390f35b61023c60048036038101906102379190612665565b6106b8565b60405161024991906126d3565b60405180910390f35b61026c6004803603810190610267919061271a565b6106fe565b005b610276610815565b604051610283919061260d565b60405180910390f35b6102946108a3565b005b6102b060048036038101906102ab919061275a565b6108cb565b005b6102cc60048036038101906102c791906128e2565b61092b565b005b6102d66109ce565b005b6102f260048036038101906102ed919061275a565b610a68565b005b61030e6004803603810190610309919061292b565b610a88565b005b610318610bcb565b6040516103259190612562565b60405180910390f35b61034860048036038101906103439190612665565b610be2565b60405161035591906126d3565b60405180910390f35b6103786004803603810190610373919061292b565b610c68565b6040516103859190612967565b60405180910390f35b610396610d1f565b6040516103a39190612967565b60405180910390f35b6103b4610d25565b6040516103c1919061260d565b60405180910390f35b6103d2610db3565b005b6103dc610e4d565b6040516103e9919061260d565b60405180910390f35b6103fa610edb565b604051610407919061260d565b60405180910390f35b61042a600480360381019061042591906129ae565b610f6d565b005b61044660048036038101906104419190612a8f565b610f83565b005b610450610fe5565b005b61046c60048036038101906104679190612665565b611016565b604051610479919061260d565b60405180910390f35b61049c600480360381019061049791906128e2565b611073565b005b6104a6611116565b6040516104b39190612967565b60405180910390f35b6104c4611147565b6040516104d1919061260d565b60405180910390f35b6104f460048036038101906104ef9190612b12565b6111d9565b6040516105019190612562565b60405180910390f35b610524600480360381019061051f91906128e2565b61126d565b005b61052e611310565b60405161053b91906126d3565b60405180910390f35b60007f80ac58cd000000000000000000000000000000000000000000000000000000007bffffffffffffffffffffffffffffffffffffffffffffffffffffffff1916827bffffffffffffffffffffffffffffffffffffffffffffffffffffffff1916148061060f57507f5b5e139f000000000000000000000000000000000000000000000000000000007bffffffffffffffffffffffffffffffffffffffffffffffffffffffff1916827bffffffffffffffffffffffffffffffffffffffffffffffffffffffff1916145b8061061f575061061e82611336565b5b9050919050565b60606000805461063590612b81565b80601f016020809104026020016040519081016040528092919081815260200182805461066190612b81565b80156106ae5780601f10610683576101008083540402835291602001916106ae565b820191906000526020600020905b81548152906001019060200180831161069157829003601f168201915b5050505050905090565b60006106c3826113a0565b6004600083815260200190815260200160002060009054906101000a900473ffffffffffffffffffffffffffffffffffffffff169050919050565b600061070982610be2565b90508073ffffffffffffffffffffffffffffffffffffffff168373ffffffffffffffffffffffffffffffffffffffff1603610779576040517f08c379a000000000000000000000000000000000000000000000000000000000815260040161077090612c24565b60405180910390fd5b8073ffffffffffffffffffffffffffffffffffffffff166107986113eb565b73ffffffffffffffffffffffffffffffffffffffff1614806107c757506107c6816107c16113eb565b6111d9565b5b610806576040517f08c379a00000000000000000000000000000000000000000000000000000000081526004016107fd90612cb6565b60405180910390fd5b61081083836113f3565b505050565b600a805461082290612b81565b80601f016020809104026020016040519081016040528092919081815260200182805461084e90612b81565b801561089b5780601f106108705761010080835404028352916020019161089b565b820191906000526020600020905b81548152906001019060200180831161087e57829003601f168201915b505050505081565b6007600081546108b290612d05565b919050819055506108c96108c4611116565b6114ac565b565b6108dc6108d66113eb565b826115fa565b61091b576040517f08c379a000000000000000000000000000000000000000000000000000000000815260040161091290612da0565b60405180910390fd5b61092683838361168f565b505050565b600860009054906101000a900473ffffffffffffffffffffffffffffffffffffffff1673ffffffffffffffffffffffffffffffffffffffff163373ffffffffffffffffffffffffffffffffffffffff16146109bb576040517f08c379a00000000000000000000000000000000000000000000000000000000081526004016109b290612e0c565b60405180910390fd5b80600b90816109ca9190612fd8565b5050565b600860009054906101000a900473ffffffffffffffffffffffffffffffffffffffff1673ffffffffffffffffffffffffffffffffffffffff163373ffffffffffffffffffffffffffffffffffffffff1614610a5e576040517f08c379a0000000000000000000000000000000000000000000000000000000008152600401610a5590612e0c565b60405180910390fd5b610a66611988565b565b610a8383838360405180602001604052806000815250610f83565b505050565b600860009054906101000a900473ffffffffffffffffffffffffffffffffffffffff1673ffffffffffffffffffffffffffffffffffffffff163373ffffffffffffffffffffffffffffffffffffffff1614610b18576040517f08c379a0000000000000000000000000000000000000000000000000000000008152600401610b0f90612e0c565b60405180910390fd5b600073ffffffffffffffffffffffffffffffffffffffff168173ffffffffffffffffffffffffffffffffffffffff1603610b87576040517f08c379a0000000000000000000000000000000000000000000000000000000008152600401610b7e906130f6565b60405180910390fd5b80600860006101000a81548173ffffffffffffffffffffffffffffffffffffffff021916908373ffffffffffffffffffffffffffffffffffffffff16021790555050565b6000600660009054906101000a900460ff16905090565b600080610bee836119eb565b9050600073ffffffffffffffffffffffffffffffffffffffff168173ffffffffffffffffffffffffffffffffffffffff1603610c5f576040517f08c379a0000000000000000000000000000000000000000000000000000000008152600401610c5690613162565b60405180910390fd5b80915050919050565b60008073ffffffffffffffffffffffffffffffffffffffff168273ffffffffffffffffffffffffffffffffffffffff1603610cd8576040517f08c379a0000000000000000000000000000000000000000000000000000000008152600401610ccf906131f4565b60405180910390fd5b600360008373ffffffffffffffffffffffffffffffffffffffff1673ffffffffffffffffffffffffffffffffffffffff168152602001908152602001600020549050919050565b60075481565b60098054610d3290612b81565b80601f0160208091040260200160405190810160405280929190818152602001828054610d5e90612b81565b8015610dab5780601f10610d8057610100808354040283529160200191610dab565b820191906000526020600020905b815481529060010190602001808311610d8e57829003601f168201915b505050505081565b600860009054906101000a900473ffffffffffffffffffffffffffffffffffffffff1673ffffffffffffffffffffffffffffffffffffffff163373ffffffffffffffffffffffffffffffffffffffff1614610e43576040517f08c379a0000000000000000000000000000000000000000000000000000000008152600401610e3a90612e0c565b60405180910390fd5b610e4b611a28565b565b600b8054610e5a90612b81565b80601f0160208091040260200160405190810160405280929190818152602001828054610e8690612b81565b8015610ed35780601f10610ea857610100808354040283529160200191610ed3565b820191906000526020600020905b815481529060010190602001808311610eb657829003601f168201915b505050505081565b606060018054610eea90612b81565b80601f0160208091040260200160405190810160405280929190818152602001828054610f1690612b81565b8015610f635780601f10610f3857610100808354040283529160200191610f63565b820191906000526020600020905b815481529060010190602001808311610f4657829003601f168201915b5050505050905090565b610f7f610f786113eb565b8383611a8b565b5050565b610f94610f8e6113eb565b836115fa565b610fd3576040517f08c379a0000000000000000000000000000000000000000000000000000000008152600401610fca90612da0565b60405180910390fd5b610fdf84848484611bf7565b50505050565b610fed611c53565b600760008154610ffc90613214565b919050819055506110143361100f611116565b611c9d565b565b6060611021826113a0565b61104d6009600b604051602001611039929190613771565b604051602081830303815290604052611cbb565b60405160200161105d9190613833565b6040516020818303038152906040529050919050565b600860009054906101000a900473ffffffffffffffffffffffffffffffffffffffff1673ffffffffffffffffffffffffffffffffffffffff163373ffffffffffffffffffffffffffffffffffffffff1614611103576040517f08c379a00000000000000000000000000000000000000000000000000000000081526004016110fa90612e0c565b60405180910390fd5b80600a90816111129190612fd8565b5050565b600033604051602001611129919061389d565b6040516020818303038152906040528051906020012060001c905090565b6060600a805461115690612b81565b80601f016020809104026020016040519081016040528092919081815260200182805461118290612b81565b80156111cf5780601f106111a4576101008083540402835291602001916111cf565b820191906000526020600020905b8154815290600101906020018083116111b257829003601f168201915b5050505050905090565b6000600560008473ffffffffffffffffffffffffffffffffffffffff1673ffffffffffffffffffffffffffffffffffffffff16815260200190815260200160002060008373ffffffffffffffffffffffffffffffffffffffff1673ffffffffffffffffffffffffffffffffffffffff16815260200190815260200160002060009054906101000a900460ff16905092915050565b600860009054906101000a900473ffffffffffffffffffffffffffffffffffffffff1673ffffffffffffffffffffffffffffffffffffffff163373ffffffffffffffffffffffffffffffffffffffff16146112fd576040517f08c379a00000000000000000000000000000000000000000000000000000000081526004016112f490612e0c565b60405180910390fd5b806009908161130c9190612fd8565b5050565b600860009054906101000a900473ffffffffffffffffffffffffffffffffffffffff1681565b60007f01ffc9a7000000000000000000000000000000000000000000000000000000007bffffffffffffffffffffffffffffffffffffffffffffffffffffffff1916827bffffffffffffffffffffffffffffffffffffffffffffffffffffffff1916149050919050565b6113a981611e1e565b6113e8576040517f08c379a00000000000000000000000000000000000000000000000000000000081526004016113df90613162565b60405180910390fd5b50565b600033905090565b816004600083815260200190815260200160002060006101000a81548173ffffffffffffffffffffffffffffffffffffffff021916908373ffffffffffffffffffffffffffffffffffffffff160217905550808273ffffffffffffffffffffffffffffffffffffffff1661146683610be2565b73ffffffffffffffffffffffffffffffffffffffff167f8c5be1e5ebec7d5bd14f71427d1e84f3dd0314c0f7b2291e5b200ac8c7c3b92560405160405180910390a45050565b60006114b782610be2565b90506114c7816000846001611e5f565b6114d082610be2565b90506004600083815260200190815260200160002060006101000a81549073ffffffffffffffffffffffffffffffffffffffff02191690556001600360008373ffffffffffffffffffffffffffffffffffffffff1673ffffffffffffffffffffffffffffffffffffffff168152602001908152602001600020600082825403925050819055506002600083815260200190815260200160002060006101000a81549073ffffffffffffffffffffffffffffffffffffffff021916905581600073ffffffffffffffffffffffffffffffffffffffff168273ffffffffffffffffffffffffffffffffffffffff167fddf252ad1be2c89b69c2b068fc378daa952ba7f163c4a11628f55a4df523b3ef60405160405180910390a46115f6816000846001611f17565b5050565b60008061160683610be2565b90508073ffffffffffffffffffffffffffffffffffffffff168473ffffffffffffffffffffffffffffffffffffffff161480611648575061164781856111d9565b5b8061168657508373ffffffffffffffffffffffffffffffffffffffff1661166e846106b8565b73ffffffffffffffffffffffffffffffffffffffff16145b91505092915050565b8273ffffffffffffffffffffffffffffffffffffffff166116af82610be2565b73ffffffffffffffffffffffffffffffffffffffff1614611705576040517f08c379a00000000000000000000000000000000000000000000000000000000081526004016116fc9061392a565b60405180910390fd5b600073ffffffffffffffffffffffffffffffffffffffff168273ffffffffffffffffffffffffffffffffffffffff1603611774576040517f08c379a000000000000000000000000000000000000000000000000000000000815260040161176b906139bc565b60405180910390fd5b6117818383836001611e5f565b8273ffffffffffffffffffffffffffffffffffffffff166117a182610be2565b73ffffffffffffffffffffffffffffffffffffffff16146117f7576040517f08c379a00000000000000000000000000000000000000000000000000000000081526004016117ee9061392a565b60405180910390fd5b6004600082815260200190815260200160002060006101000a81549073ffffffffffffffffffffffffffffffffffffffff02191690556001600360008573ffffffffffffffffffffffffffffffffffffffff1673ffffffffffffffffffffffffffffffffffffffff168152602001908152602001600020600082825403925050819055506001600360008473ffffffffffffffffffffffffffffffffffffffff1673ffffffffffffffffffffffffffffffffffffffff16815260200190815260200160002060008282540192505081905550816002600083815260200190815260200160002060006101000a81548173ffffffffffffffffffffffffffffffffffffffff021916908373ffffffffffffffffffffffffffffffffffffffff160217905550808273ffffffffffffffffffffffffffffffffffffffff168473ffffffffffffffffffffffffffffffffffffffff167fddf252ad1be2c89b69c2b068fc378daa952ba7f163c4a11628f55a4df523b3ef60405160405180910390a46119838383836001611f17565b505050565b611990611f1d565b6000600660006101000a81548160ff0219169083151502179055507f5db9ee0a495bf2e6ff9c91a7834c1ba4fdd244a5e8aa4e537bd38aeae4b073aa6119d46113eb565b6040516119e191906126d3565b60405180910390a1565b60006002600083815260200190815260200160002060009054906101000a900473ffffffffffffffffffffffffffffffffffffffff169050919050565b611a30611c53565b6001600660006101000a81548160ff0219169083151502179055507f62e78cea01bee320cd4e420270b5ea74000d11b0c9f74754ebdbfc544b05a258611a746113eb565b604051611a8191906126d3565b60405180910390a1565b8173ffffffffffffffffffffffffffffffffffffffff168373ffffffffffffffffffffffffffffffffffffffff1603611af9576040517f08c379a0000000000000000000000000000000000000000000000000000000008152600401611af090613a28565b60405180910390fd5b80600560008573ffffffffffffffffffffffffffffffffffffffff1673ffffffffffffffffffffffffffffffffffffffff16815260200190815260200160002060008473ffffffffffffffffffffffffffffffffffffffff1673ffffffffffffffffffffffffffffffffffffffff16815260200190815260200160002060006101000a81548160ff0219169083151502179055508173ffffffffffffffffffffffffffffffffffffffff168373ffffffffffffffffffffffffffffffffffffffff167f17307eab39ab6107e8899845ad3d59bd9653f200f220920489ca2b5937696c3183604051611bea9190612562565b60405180910390a3505050565b611c0284848461168f565b611c0e84848484611f66565b611c4d576040517f08c379a0000000000000000000000000000000000000000000000000000000008152600401611c4490613aba565b60405180910390fd5b50505050565b611c5b610bcb565b15611c9b576040517f08c379a0000000000000000000000000000000000000000000000000000000008152600401611c9290613b26565b60405180910390fd5b565b611cb78282604051806020016040528060008152506120ed565b5050565b60606000825103611cdd57604051806020016040528060008152509050611e19565b6000604051806060016040528060408152602001613ee46040913990506000600360028551611d0c9190613b46565b611d169190613ba9565b6004611d229190613bda565b67ffffffffffffffff811115611d3b57611d3a6127b7565b5b6040519080825280601f01601f191660200182016040528015611d6d5781602001600182028036833780820191505090505b509050600182016020820185865187015b80821015611dd9576003820191508151603f8160121c168501518453600184019350603f81600c1c168501518453600184019350603f8160061c168501518453600184019350603f8116850151845360018401935050611d7e565b5050600386510660018114611df55760028114611e0857611e10565b603d6001830353603d6002830353611e10565b603d60018303535b50505080925050505b919050565b60008073ffffffffffffffffffffffffffffffffffffffff16611e40836119eb565b73ffffffffffffffffffffffffffffffffffffffff1614159050919050565b600073ffffffffffffffffffffffffffffffffffffffff168473ffffffffffffffffffffffffffffffffffffffff161480611ec65750600073ffffffffffffffffffffffffffffffffffffffff168373ffffffffffffffffffffffffffffffffffffffff16145b611f05576040517f08c379a0000000000000000000000000000000000000000000000000000000008152600401611efc90613c68565b60405180910390fd5b611f1184848484612148565b50505050565b50505050565b611f25610bcb565b611f64576040517f08c379a0000000000000000000000000000000000000000000000000000000008152600401611f5b90613cd4565b60405180910390fd5b565b6000611f878473ffffffffffffffffffffffffffffffffffffffff1661226e565b156120e0578373ffffffffffffffffffffffffffffffffffffffff1663150b7a02611fb06113eb565b8786866040518563ffffffff1660e01b8152600401611fd29493929190613d49565b6020604051808303816000875af192505050801561200e57506040513d601f19601f8201168201806040525081019061200b9190613daa565b60015b612090573d806000811461203e576040519150601f19603f3d011682016040523d82523d6000602084013e612043565b606091505b506000815103612088576040517f08c379a000000000000000000000000000000000000000000000000000000000815260040161207f90613aba565b60405180910390fd5b805181602001fd5b63150b7a0260e01b7bffffffffffffffffffffffffffffffffffffffffffffffffffffffff1916817bffffffffffffffffffffffffffffffffffffffffffffffffffffffff1916149150506120e5565b600190505b949350505050565b6120f78383612291565b6121046000848484611f66565b612143576040517f08c379a000000000000000000000000000000000000000000000000000000000815260040161213a90613aba565b60405180910390fd5b505050565b600181111561226857600073ffffffffffffffffffffffffffffffffffffffff168473ffffffffffffffffffffffffffffffffffffffff16146121dc5780600360008673ffffffffffffffffffffffffffffffffffffffff1673ffffffffffffffffffffffffffffffffffffffff16815260200190815260200160002060008282546121d49190613dd7565b925050819055505b600073ffffffffffffffffffffffffffffffffffffffff168373ffffffffffffffffffffffffffffffffffffffff16146122675780600360008573ffffffffffffffffffffffffffffffffffffffff1673ffffffffffffffffffffffffffffffffffffffff168152602001908152602001600020600082825461225f9190613b46565b925050819055505b5b50505050565b6000808273ffffffffffffffffffffffffffffffffffffffff163b119050919050565b600073ffffffffffffffffffffffffffffffffffffffff168273ffffffffffffffffffffffffffffffffffffffff1603612300576040517f08c379a00000000000000000000000000000000000000000000000000000000081526004016122f790613e57565b60405180910390fd5b61230981611e1e565b15612349576040517f08c379a000000000000000000000000000000000000000000000000000000000815260040161234090613ec3565b60405180910390fd5b612357600083836001611e5f565b61236081611e1e565b156123a0576040517f08c379a000000000000000000000000000000000000000000000000000000000815260040161239790613ec3565b60405180910390fd5b6001600360008473ffffffffffffffffffffffffffffffffffffffff1673ffffffffffffffffffffffffffffffffffffffff16815260200190815260200160002060008282540192505081905550816002600083815260200190815260200160002060006101000a81548173ffffffffffffffffffffffffffffffffffffffff021916908373ffffffffffffffffffffffffffffffffffffffff160217905550808273ffffffffffffffffffffffffffffffffffffffff16600073ffffffffffffffffffffffffffffffffffffffff167fddf252ad1be2c89b69c2b068fc378daa952ba7f163c4a11628f55a4df523b3ef60405160405180910390a46124aa600083836001611f17565b5050565b6000604051905090565b600080fd5b600080fd5b60007fffffffff0000000000000000000000000000000000000000000000000000000082169050919050565b6124f7816124c2565b811461250257600080fd5b50565b600081359050612514816124ee565b92915050565b6000602082840312156125305761252f6124b8565b5b600061253e84828501612505565b91505092915050565b60008115159050919050565b61255c81612547565b82525050565b60006020820190506125776000830184612553565b92915050565b600081519050919050565b600082825260208201905092915050565b60005b838110156125b757808201518184015260208101905061259c565b60008484015250505050565b6000601f19601f8301169050919050565b60006125df8261257d565b6125e98185612588565b93506125f9818560208601612599565b612602816125c3565b840191505092915050565b6000602082019050818103600083015261262781846125d4565b905092915050565b6000819050919050565b6126428161262f565b811461264d57600080fd5b50565b60008135905061265f81612639565b92915050565b60006020828403121561267b5761267a6124b8565b5b600061268984828501612650565b91505092915050565b600073ffffffffffffffffffffffffffffffffffffffff82169050919050565b60006126bd82612692565b9050919050565b6126cd816126b2565b82525050565b60006020820190506126e860008301846126c4565b92915050565b6126f7816126b2565b811461270257600080fd5b50565b600081359050612714816126ee565b92915050565b60008060408385031215612731576127306124b8565b5b600061273f85828601612705565b925050602061275085828601612650565b9150509250929050565b600080600060608486031215612773576127726124b8565b5b600061278186828701612705565b935050602061279286828701612705565b92505060406127a386828701612650565b9150509250925092565b600080fd5b600080fd5b7f4e487b7100000000000000000000000000000000000000000000000000000000600052604160045260246000fd5b6127ef826125c3565b810181811067ffffffffffffffff8211171561280e5761280d6127b7565b5b80604052505050565b60006128216124ae565b905061282d82826127e6565b919050565b600067ffffffffffffffff82111561284d5761284c6127b7565b5b612856826125c3565b9050602081019050919050565b82818337600083830152505050565b600061288561288084612832565b612817565b9050828152602081018484840111156128a1576128a06127b2565b5b6128ac848285612863565b509392505050565b600082601f8301126128c9576128c86127ad565b5b81356128d9848260208601612872565b91505092915050565b6000602082840312156128f8576128f76124b8565b5b600082013567ffffffffffffffff811115612916576129156124bd565b5b612922848285016128b4565b91505092915050565b600060208284031215612941576129406124b8565b5b600061294f84828501612705565b91505092915050565b6129618161262f565b82525050565b600060208201905061297c6000830184612958565b92915050565b61298b81612547565b811461299657600080fd5b50565b6000813590506129a881612982565b92915050565b600080604083850312156129c5576129c46124b8565b5b60006129d385828601612705565b92505060206129e485828601612999565b9150509250929050565b600067ffffffffffffffff821115612a0957612a086127b7565b5b612a12826125c3565b9050602081019050919050565b6000612a32612a2d846129ee565b612817565b905082815260208101848484011115612a4e57612a4d6127b2565b5b612a59848285612863565b509392505050565b600082601f830112612a7657612a756127ad565b5b8135612a86848260208601612a1f565b91505092915050565b60008060008060808587031215612aa957612aa86124b8565b5b6000612ab787828801612705565b9450506020612ac887828801612705565b9350506040612ad987828801612650565b925050606085013567ffffffffffffffff811115612afa57612af96124bd565b5b612b0687828801612a61565b91505092959194509250565b60008060408385031215612b2957612b286124b8565b5b6000612b3785828601612705565b9250506020612b4885828601612705565b9150509250929050565b7f4e487b7100000000000000000000000000000000000000000000000000000000600052602260045260246000fd5b60006002820490506001821680612b9957607f821691505b602082108103612bac57612bab612b52565b5b50919050565b7f4552433732313a20617070726f76616c20746f2063757272656e74206f776e6560008201527f7200000000000000000000000000000000000000000000000000000000000000602082015250565b6000612c0e602183612588565b9150612c1982612bb2565b604082019050919050565b60006020820190508181036000830152612c3d81612c01565b9050919050565b7f4552433732313a20617070726f76652063616c6c6572206973206e6f7420746f60008201527f6b656e206f776e6572206f7220617070726f76656420666f7220616c6c000000602082015250565b6000612ca0603d83612588565b9150612cab82612c44565b604082019050919050565b60006020820190508181036000830152612ccf81612c93565b9050919050565b7f4e487b7100000000000000000000000000000000000000000000000000000000600052601160045260246000fd5b6000612d108261262f565b915060008203612d2357612d22612cd6565b5b600182039050919050565b7f4552433732313a2063616c6c6572206973206e6f7420746f6b656e206f776e6560008201527f72206f7220617070726f76656400000000000000000000000000000000000000602082015250565b6000612d8a602d83612588565b9150612d9582612d2e565b604082019050919050565b60006020820190508181036000830152612db981612d7d565b9050919050565b7f4f6e6c792061646d696e00000000000000000000000000000000000000000000600082015250565b6000612df6600a83612588565b9150612e0182612dc0565b602082019050919050565b60006020820190508181036000830152612e2581612de9565b9050919050565b60008190508160005260206000209050919050565b60006020601f8301049050919050565b600082821b905092915050565b600060088302612e8e7fffffffffffffffffffffffffffffffffffffffffffffffffffffffffffffffff82612e51565b612e988683612e51565b95508019841693508086168417925050509392505050565b6000819050919050565b6000612ed5612ed0612ecb8461262f565b612eb0565b61262f565b9050919050565b6000819050919050565b612eef83612eba565b612f03612efb82612edc565b848454612e5e565b825550505050565b600090565b612f18612f0b565b612f23818484612ee6565b505050565b5b81811015612f4757612f3c600082612f10565b600181019050612f29565b5050565b601f821115612f8c57612f5d81612e2c565b612f6684612e41565b81016020851015612f75578190505b612f89612f8185612e41565b830182612f28565b50505b505050565b600082821c905092915050565b6000612faf60001984600802612f91565b1980831691505092915050565b6000612fc88383612f9e565b9150826002028217905092915050565b612fe18261257d565b67ffffffffffffffff811115612ffa57612ff96127b7565b5b6130048254612b81565b61300f828285612f4b565b600060209050601f8311600181146130425760008415613030578287015190505b61303a8582612fbc565b8655506130a2565b601f19841661305086612e2c565b60005b8281101561307857848901518255600182019150602085019450602081019050613053565b868310156130955784890151613091601f891682612f9e565b8355505b6001600288020188555050505b505050505050565b7f4e65772041646d696e20697320746865207a65726f2061646472657373000000600082015250565b60006130e0601d83612588565b91506130eb826130aa565b602082019050919050565b6000602082019050818103600083015261310f816130d3565b9050919050565b7f4552433732313a20696e76616c696420746f6b656e2049440000000000000000600082015250565b600061314c601883612588565b915061315782613116565b602082019050919050565b6000602082019050818103600083015261317b8161313f565b9050919050565b7f4552433732313a2061646472657373207a65726f206973206e6f74206120766160008201527f6c6964206f776e65720000000000000000000000000000000000000000000000602082015250565b60006131de602983612588565b91506131e982613182565b604082019050919050565b6000602082019050818103600083015261320d816131d1565b9050919050565b600061321f8261262f565b91507fffffffffffffffffffffffffffffffffffffffffffffffffffffffffffffffff820361325157613250612cd6565b5b600182019050919050565b600081905092915050565b7f7b22696d616765223a2022000000000000000000000000000000000000000000600082015250565b600061329d600b8361325c565b91506132a882613267565b600b82019050919050565b600081546132c081612b81565b6132ca818661325c565b945060018216600081146132e557600181146132fa5761332d565b60ff198316865281151582028601935061332d565b61330385612e2c565b60005b8381101561332557815481890152600182019150602081019050613306565b838801955050505b50505092915050565b7f222c202265787465726e616c5f75726c223a2022000000000000000000000000600082015250565b600061336c60148361325c565b915061337782613336565b601482019050919050565b7f222c20226465736372697074696f6e223a20225468652044414f2d412d54484f60008201527f4e20697320746865206d697874757265206f66206861636b6174686f6e20616e60208201527f64206964656174686f6e2074686174206272696e677320746f6765746865722060408201527f7765623320656e7468757369617374732066726f6d204a6170616e20616e642060608201527f61726f756e642074686520776f726c6420746f20636f6c6c61626f726174652060808201527f6f6e20646563656e7472616c697a6564206175746f6e6f6d6f7573206f72676160a08201527f6e697a6174696f6e202844414f292070726f6a656374732e205468652065766560c08201527f6e7420636f6d62696e657320656c656d656e7473206f6620616e20696465617460e08201527f686f6e20616e64206861636b6174686f6e20746f2061646472657373207468656101008201527f206368616c6c656e67657320616e64206c696d69746174696f6e7320666163656101208201527f642062792063757272656e742044414f732c2073756368206173207363616c696101408201527f6e6720616e6420646563656e7472616c697a6174696f6e2e2054686520676f616101608201527f6c20697320746f20656d706f77657220616e6420696e7370697265206e6577206101808201527f74616c656e747320746f20636f6e7472696275746520746f207468652067726f6101a08201527f77696e672065636f73797374656d206f662044414f732c20706172746963756c6101c08201527f61726c7920696e206e6174696f6e73206c696b65204a6170616e2077686572656101e08201527f20756e6465727374616e64696e6720616e642061646f7074696f6e206f6620646102008201527f6563656e7472616c697a656420746563686e6f6c6f677920617265207374696c6102208201527f6c20646576656c6f70696e672e20546865206576656e742061696d7320746f206102408201527f70726f6d6f7465207468652067726f777468206f66207468652044414f69736d6102608201527f206d6f76656d656e7420696e204173696120616e642065737461626c697368206102808201527f69742061732061206c656164696e672068756220666f72206e657720636f6d6d6102a08201527f756e697469657320696e2074686973206669656c642e222c20226e616d65223a6102c08201527f202244414f2d412d54484f4e20506c61796572222c20226261636b67726f756e6102e08201527f645f636f6c6f72223a2022303030303030227d0000000000000000000000000061030082015250565b600061375a6103138361325c565b915061376582613382565b61031382019050919050565b600061377c82613290565b915061378882856132b3565b91506137938261335f565b915061379f82846132b3565b91506137aa8261374c565b91508190509392505050565b7f646174613a6170706c69636174696f6e2f6a736f6e3b6261736536342c000000600082015250565b60006137ec601d8361325c565b91506137f7826137b6565b601d82019050919050565b600061380d8261257d565b613817818561325c565b9350613827818560208601612599565b80840191505092915050565b600061383e826137df565b915061384a8284613802565b915081905092915050565b60008160601b9050919050565b600061386d82613855565b9050919050565b600061387f82613862565b9050919050565b613897613892826126b2565b613874565b82525050565b60006138a98284613886565b60148201915081905092915050565b7f4552433732313a207472616e736665722066726f6d20696e636f72726563742060008201527f6f776e6572000000000000000000000000000000000000000000000000000000602082015250565b6000613914602583612588565b915061391f826138b8565b604082019050919050565b6000602082019050818103600083015261394381613907565b9050919050565b7f4552433732313a207472616e7366657220746f20746865207a65726f2061646460008201527f7265737300000000000000000000000000000000000000000000000000000000602082015250565b60006139a6602483612588565b91506139b18261394a565b604082019050919050565b600060208201905081810360008301526139d581613999565b9050919050565b7f4552433732313a20617070726f766520746f2063616c6c657200000000000000600082015250565b6000613a12601983612588565b9150613a1d826139dc565b602082019050919050565b60006020820190508181036000830152613a4181613a05565b9050919050565b7f4552433732313a207472616e7366657220746f206e6f6e20455243373231526560008201527f63656976657220696d706c656d656e7465720000000000000000000000000000602082015250565b6000613aa4603283612588565b9150613aaf82613a48565b604082019050919050565b60006020820190508181036000830152613ad381613a97565b9050919050565b7f5061757361626c653a2070617573656400000000000000000000000000000000600082015250565b6000613b10601083612588565b9150613b1b82613ada565b602082019050919050565b60006020820190508181036000830152613b3f81613b03565b9050919050565b6000613b518261262f565b9150613b5c8361262f565b9250828201905080821115613b7457613b73612cd6565b5b92915050565b7f4e487b7100000000000000000000000000000000000000000000000000000000600052601260045260246000fd5b6000613bb48261262f565b9150613bbf8361262f565b925082613bcf57613bce613b7a565b5b828204905092915050565b6000613be58261262f565b9150613bf08361262f565b9250828202613bfe8161262f565b91508282048414831517613c1557613c14612cd6565b5b5092915050565b7f43616e6e6f74207472616e7366657220746f206f746865727300000000000000600082015250565b6000613c52601983612588565b9150613c5d82613c1c565b602082019050919050565b60006020820190508181036000830152613c8181613c45565b9050919050565b7f5061757361626c653a206e6f7420706175736564000000000000000000000000600082015250565b6000613cbe601483612588565b9150613cc982613c88565b602082019050919050565b60006020820190508181036000830152613ced81613cb1565b9050919050565b600081519050919050565b600082825260208201905092915050565b6000613d1b82613cf4565b613d258185613cff565b9350613d35818560208601612599565b613d3e816125c3565b840191505092915050565b6000608082019050613d5e60008301876126c4565b613d6b60208301866126c4565b613d786040830185612958565b8181036060830152613d8a8184613d10565b905095945050505050565b600081519050613da4816124ee565b92915050565b600060208284031215613dc057613dbf6124b8565b5b6000613dce84828501613d95565b91505092915050565b6000613de28261262f565b9150613ded8361262f565b9250828203905081811115613e0557613e04612cd6565b5b92915050565b7f4552433732313a206d696e7420746f20746865207a65726f2061646472657373600082015250565b6000613e41602083612588565b9150613e4c82613e0b565b602082019050919050565b60006020820190508181036000830152613e7081613e34565b9050919050565b7f4552433732313a20746f6b656e20616c7265616479206d696e74656400000000600082015250565b6000613ead601c83612588565b9150613eb882613e77565b602082019050919050565b60006020820190508181036000830152613edc81613ea0565b905091905056fe4142434445464748494a4b4c4d4e4f505152535455565758595a6162636465666768696a6b6c6d6e6f707172737475767778797a303132333435363738392b2fa264697066735822122052a3d95eff34961c606f546065599a0fb16028193c81afbbe1bcf45282fbba2c64736f6c63430008110033697066733a2f2f516d5576786d7342716a427353636943396f4c4a6e5642715a4b58446b6773793637576e5241326f486338386237697066733a2f2f516d6539314535625639465575526834557339684d79686f626673564b5133756934415138374e6f71724c68476568747470733a2f2f64616f2d612d74686f6e2d66726f6e742e76657263656c2e6170702f",
  "linkReferences": {},
  "deployedLinkReferences": {}
}