{
  "_format": "hh-sol-artifact-1",
  "contractName": "Daoathon",
  "sourceName": "contracts/Daoathon.sol",
  "abi": [
    {
      "inputs": [],
      "stateMutability": "nonpayable",
      "type": "constructor"
    },
    {
      "anonymous": false,
      "inputs": [
        {
          "indexed": true,
          "internalType": "address",
          "name": "owner",
          "type": "address"
        },
        {
          "indexed": true,
          "internalType": "address",
          "name": "approved",
          "type": "address"
        },
        {
          "indexed": true,
          "internalType": "uint256",
          "name": "tokenId",
          "type": "uint256"
        }
      ],
      "name": "Approval",
      "type": "event"
    },
    {
      "anonymous": false,
      "inputs": [
        {
          "indexed": true,
          "internalType": "address",
          "name": "owner",
          "type": "address"
        },
        {
          "indexed": true,
          "internalType": "address",
          "name": "operator",
          "type": "address"
        },
        {
          "indexed": false,
          "internalType": "bool",
          "name": "approved",
          "type": "bool"
        }
      ],
      "name": "ApprovalForAll",
      "type": "event"
    },
    {
      "anonymous": false,
      "inputs": [
        {
          "indexed": false,
          "internalType": "address",
          "name": "account",
          "type": "address"
        }
      ],
      "name": "Paused",
      "type": "event"
    },
    {
      "anonymous": false,
      "inputs": [
        {
          "indexed": true,
          "internalType": "address",
          "name": "from",
          "type": "address"
        },
        {
          "indexed": true,
          "internalType": "address",
          "name": "to",
          "type": "address"
        },
        {
          "indexed": true,
          "internalType": "uint256",
          "name": "tokenId",
          "type": "uint256"
        }
      ],
      "name": "Transfer",
      "type": "event"
    },
    {
      "anonymous": false,
      "inputs": [
        {
          "indexed": false,
          "internalType": "address",
          "name": "account",
          "type": "address"
        }
      ],
      "name": "Unpaused",
      "type": "event"
    },
    {
      "inputs": [],
      "name": "admin",
      "outputs": [
        {
          "internalType": "address",
          "name": "",
          "type": "address"
        }
      ],
      "stateMutability": "view",
      "type": "function"
    },
    {
      "inputs": [
        {
          "internalType": "address",
          "name": "to",
          "type": "address"
        },
        {
          "internalType": "uint256",
          "name": "tokenId",
          "type": "uint256"
        }
      ],
      "name": "approve",
      "outputs": [],
      "stateMutability": "nonpayable",
      "type": "function"
    },
    {
      "inputs": [
        {
          "internalType": "address",
          "name": "owner",
          "type": "address"
        }
      ],
      "name": "balanceOf",
      "outputs": [
        {
          "internalType": "uint256",
          "name": "",
          "type": "uint256"
        }
      ],
      "stateMutability": "view",
      "type": "function"
    },
    {
      "inputs": [],
      "name": "burnNft",
      "outputs": [],
      "stateMutability": "nonpayable",
      "type": "function"
    },
    {
      "inputs": [],
      "name": "contractURI",
      "outputs": [
        {
          "internalType": "string",
          "name": "",
          "type": "string"
        }
      ],
      "stateMutability": "view",
      "type": "function"
    },
    {
      "inputs": [],
      "name": "contractUriJson",
      "outputs": [
        {
          "internalType": "string",
          "name": "",
          "type": "string"
        }
      ],
      "stateMutability": "view",
      "type": "function"
    },
    {
      "inputs": [
        {
          "internalType": "uint256",
          "name": "tokenId",
          "type": "uint256"
        }
      ],
      "name": "getApproved",
      "outputs": [
        {
          "internalType": "address",
          "name": "",
          "type": "address"
        }
      ],
      "stateMutability": "view",
      "type": "function"
    },
    {
      "inputs": [],
      "name": "hashMsgSender",
      "outputs": [
        {
          "internalType": "uint256",
          "name": "",
          "type": "uint256"
        }
      ],
      "stateMutability": "view",
      "type": "function"
    },
    {
      "inputs": [
        {
          "internalType": "address",
          "name": "owner",
          "type": "address"
        },
        {
          "internalType": "address",
          "name": "operator",
          "type": "address"
        }
      ],
      "name": "isApprovedForAll",
      "outputs": [
        {
          "internalType": "bool",
          "name": "",
          "type": "bool"
        }
      ],
      "stateMutability": "view",
      "type": "function"
    },
    {
      "inputs": [],
      "name": "mintNft",
      "outputs": [],
      "stateMutability": "nonpayable",
      "type": "function"
    },
    {
      "inputs": [],
      "name": "name",
      "outputs": [
        {
          "internalType": "string",
          "name": "",
          "type": "string"
        }
      ],
      "stateMutability": "view",
      "type": "function"
    },
    {
      "inputs": [
        {
          "internalType": "uint256",
          "name": "tokenId",
          "type": "uint256"
        }
      ],
      "name": "ownerOf",
      "outputs": [
        {
          "internalType": "address",
          "name": "",
          "type": "address"
        }
      ],
      "stateMutability": "view",
      "type": "function"
    },
    {
      "inputs": [],
      "name": "pause",
      "outputs": [],
      "stateMutability": "nonpayable",
      "type": "function"
    },
    {
      "inputs": [],
      "name": "paused",
      "outputs": [
        {
          "internalType": "bool",
          "name": "",
          "type": "bool"
        }
      ],
      "stateMutability": "view",
      "type": "function"
    },
    {
      "inputs": [
        {
          "internalType": "address",
          "name": "from",
          "type": "address"
        },
        {
          "internalType": "address",
          "name": "to",
          "type": "address"
        },
        {
          "internalType": "uint256",
          "name": "tokenId",
          "type": "uint256"
        }
      ],
      "name": "safeTransferFrom",
      "outputs": [],
      "stateMutability": "nonpayable",
      "type": "function"
    },
    {
      "inputs": [
        {
          "internalType": "address",
          "name": "from",
          "type": "address"
        },
        {
          "internalType": "address",
          "name": "to",
          "type": "address"
        },
        {
          "internalType": "uint256",
          "name": "tokenId",
          "type": "uint256"
        },
        {
          "internalType": "bytes",
          "name": "data",
          "type": "bytes"
        }
      ],
      "name": "safeTransferFrom",
      "outputs": [],
      "stateMutability": "nonpayable",
      "type": "function"
    },
    {
      "inputs": [
        {
          "internalType": "address",
          "name": "operator",
          "type": "address"
        },
        {
          "internalType": "bool",
          "name": "approved",
          "type": "bool"
        }
      ],
      "name": "setApprovalForAll",
      "outputs": [],
      "stateMutability": "nonpayable",
      "type": "function"
    },
    {
      "inputs": [
        {
          "internalType": "string",
          "name": "jsonCid",
          "type": "string"
        }
      ],
      "name": "setContractUriJson",
      "outputs": [],
      "stateMutability": "nonpayable",
      "type": "function"
    },
    {
      "inputs": [
        {
          "internalType": "string",
          "name": "imageCid",
          "type": "string"
        }
      ],
      "name": "setTokenUriImage",
      "outputs": [],
      "stateMutability": "nonpayable",
      "type": "function"
    },
    {
      "inputs": [
        {
          "internalType": "bytes4",
          "name": "interfaceId",
          "type": "bytes4"
        }
      ],
      "name": "supportsInterface",
      "outputs": [
        {
          "internalType": "bool",
          "name": "",
          "type": "bool"
        }
      ],
      "stateMutability": "view",
      "type": "function"
    },
    {
      "inputs": [],
      "name": "symbol",
      "outputs": [
        {
          "internalType": "string",
          "name": "",
          "type": "string"
        }
      ],
      "stateMutability": "view",
      "type": "function"
    },
    {
      "inputs": [],
      "name": "tokenIds",
      "outputs": [
        {
          "internalType": "uint256",
          "name": "",
          "type": "uint256"
        }
      ],
      "stateMutability": "view",
      "type": "function"
    },
    {
      "inputs": [
        {
          "internalType": "uint256",
          "name": "tokenId",
          "type": "uint256"
        }
      ],
      "name": "tokenURI",
      "outputs": [
        {
          "internalType": "string",
          "name": "",
          "type": "string"
        }
      ],
      "stateMutability": "view",
      "type": "function"
    },
    {
      "inputs": [],
      "name": "tokenUriImage",
      "outputs": [
        {
          "internalType": "string",
          "name": "",
          "type": "string"
        }
      ],
      "stateMutability": "view",
      "type": "function"
    },
    {
      "inputs": [
        {
          "internalType": "address",
          "name": "newAdmin",
          "type": "address"
        }
      ],
      "name": "transferAdminship",
      "outputs": [],
      "stateMutability": "nonpayable",
      "type": "function"
    },
    {
      "inputs": [
        {
          "internalType": "address",
          "name": "from",
          "type": "address"
        },
        {
          "internalType": "address",
          "name": "to",
          "type": "address"
        },
        {
          "internalType": "uint256",
          "name": "tokenId",
          "type": "uint256"
        }
      ],
      "name": "transferFrom",
      "outputs": [],
      "stateMutability": "nonpayable",
      "type": "function"
    },
    {
      "inputs": [],
      "name": "unpause",
      "outputs": [],
      "stateMutability": "nonpayable",
      "type": "function"
    }
  ],
  "bytecode": "0x6080604052604051806060016040528060358152602001620040ec60359139600990816200002e9190620003d6565b50604051806060016040528060358152602001620040b760359139600a9081620000599190620003d6565b503480156200006757600080fd5b506040518060400160405280601181526020017f44414f2d412d54484f4e20506c617965720000000000000000000000000000008152506040518060400160405280600381526020017f44415400000000000000000000000000000000000000000000000000000000008152508160009081620000e59190620003d6565b508060019081620000f79190620003d6565b5050506000600660006101000a81548160ff02191690831515021790555033600860006101000a81548173ffffffffffffffffffffffffffffffffffffffff021916908373ffffffffffffffffffffffffffffffffffffffff160217905550620004bd565b600081519050919050565b7f4e487b7100000000000000000000000000000000000000000000000000000000600052604160045260246000fd5b7f4e487b7100000000000000000000000000000000000000000000000000000000600052602260045260246000fd5b60006002820490506001821680620001de57607f821691505b602082108103620001f457620001f362000196565b5b50919050565b60008190508160005260206000209050919050565b60006020601f8301049050919050565b600082821b905092915050565b6000600883026200025e7fffffffffffffffffffffffffffffffffffffffffffffffffffffffffffffffff826200021f565b6200026a86836200021f565b95508019841693508086168417925050509392505050565b6000819050919050565b6000819050919050565b6000620002b7620002b1620002ab8462000282565b6200028c565b62000282565b9050919050565b6000819050919050565b620002d38362000296565b620002eb620002e282620002be565b8484546200022c565b825550505050565b600090565b62000302620002f3565b6200030f818484620002c8565b505050565b5b8181101562000337576200032b600082620002f8565b60018101905062000315565b5050565b601f82111562000386576200035081620001fa565b6200035b846200020f565b810160208510156200036b578190505b620003836200037a856200020f565b83018262000314565b50505b505050565b600082821c905092915050565b6000620003ab600019846008026200038b565b1980831691505092915050565b6000620003c6838362000398565b9150826002028217905092915050565b620003e1826200015c565b67ffffffffffffffff811115620003fd57620003fc62000167565b5b620004098254620001c5565b620004168282856200033b565b600060209050601f8311600181146200044e576000841562000439578287015190505b620004458582620003b8565b865550620004b5565b601f1984166200045e86620001fa565b60005b82811015620004885784890151825560018201915060208501945060208101905062000461565b86831015620004a85784890151620004a4601f89168262000398565b8355505b6001600288020188555050505b505050505050565b613bea80620004cd6000396000f3fe608060405234801561001057600080fd5b50600436106101a95760003560e01c8063714cff56116100f9578063c87b56dd11610097578063e8a3d48511610071578063e8a3d4851461045c578063e985e9c51461047a578063ea3c2430146104aa578063f851a440146104c6576101a9565b8063c87b56dd146103f2578063d9dfb4ad14610422578063e19ea0d81461043e576101a9565b806395d89b41116100d357806395d89b4114610392578063a22cb465146103b0578063b88d4fde146103cc578063c2229fea146103e8576101a9565b8063714cff561461034c57806379422c9f1461036a5780638456cb5914610388576101a9565b806323b872dd116101665780635be7cc16116101405780635be7cc16146102b25780635c975abb146102ce5780636352211e146102ec57806370a082311461031c576101a9565b806323b872dd146102705780633f4ba83a1461028c57806342842e0e14610296576101a9565b806301ffc9a7146101ae57806306fdde03146101de578063081812fc146101fc578063095ea7b31461022c5780631d39e32d1461024857806323b13ef914610266575b600080fd5b6101c860048036038101906101c3919061241c565b6104e4565b6040516101d59190612464565b60405180910390f35b6101e66105c6565b6040516101f3919061250f565b60405180910390f35b61021660048036038101906102119190612567565b610658565b60405161022391906125d5565b60405180910390f35b6102466004803603810190610241919061261c565b61069e565b005b6102506107b5565b60405161025d919061250f565b60405180910390f35b61026e610843565b005b61028a6004803603810190610285919061265c565b6108b6565b005b610294610916565b005b6102b060048036038101906102ab919061265c565b6109b0565b005b6102cc60048036038101906102c791906126af565b6109d0565b005b6102d6610b13565b6040516102e39190612464565b60405180910390f35b61030660048036038101906103019190612567565b610b2a565b60405161031391906125d5565b60405180910390f35b610336600480360381019061033191906126af565b610bb0565b60405161034391906126eb565b60405180910390f35b610354610c67565b60405161036191906126eb565b60405180910390f35b610372610c6d565b60405161037f919061250f565b60405180910390f35b610390610cfb565b005b61039a610d95565b6040516103a7919061250f565b60405180910390f35b6103ca60048036038101906103c59190612732565b610e27565b005b6103e660048036038101906103e191906128a7565b610e3d565b005b6103f0610e9f565b005b61040c60048036038101906104079190612567565b610f1b565b604051610419919061250f565b60405180910390f35b61043c600480360381019061043791906129cb565b610f75565b005b610446611018565b60405161045391906126eb565b60405180910390f35b610464611049565b604051610471919061250f565b60405180910390f35b610494600480360381019061048f9190612a14565b6110db565b6040516104a19190612464565b60405180910390f35b6104c460048036038101906104bf91906129cb565b61116f565b005b6104ce611212565b6040516104db91906125d5565b60405180910390f35b60007f80ac58cd000000000000000000000000000000000000000000000000000000007bffffffffffffffffffffffffffffffffffffffffffffffffffffffff1916827bffffffffffffffffffffffffffffffffffffffffffffffffffffffff191614806105af57507f5b5e139f000000000000000000000000000000000000000000000000000000007bffffffffffffffffffffffffffffffffffffffffffffffffffffffff1916827bffffffffffffffffffffffffffffffffffffffffffffffffffffffff1916145b806105bf57506105be82611238565b5b9050919050565b6060600080546105d590612a83565b80601f016020809104026020016040519081016040528092919081815260200182805461060190612a83565b801561064e5780601f106106235761010080835404028352916020019161064e565b820191906000526020600020905b81548152906001019060200180831161063157829003601f168201915b5050505050905090565b6000610663826112a2565b6004600083815260200190815260200160002060009054906101000a900473ffffffffffffffffffffffffffffffffffffffff169050919050565b60006106a982610b2a565b90508073ffffffffffffffffffffffffffffffffffffffff168373ffffffffffffffffffffffffffffffffffffffff1603610719576040517f08c379a000000000000000000000000000000000000000000000000000000000815260040161071090612b26565b60405180910390fd5b8073ffffffffffffffffffffffffffffffffffffffff166107386112ed565b73ffffffffffffffffffffffffffffffffffffffff1614806107675750610766816107616112ed565b6110db565b5b6107a6576040517f08c379a000000000000000000000000000000000000000000000000000000000815260040161079d90612bb8565b60405180910390fd5b6107b083836112f5565b505050565b600a80546107c290612a83565b80601f01602080910402602001604051908101604052809291908181526020018280546107ee90612a83565b801561083b5780601f106108105761010080835404028352916020019161083b565b820191906000526020600020905b81548152906001019060200180831161081e57829003601f168201915b505050505081565b600061084e33610bb0565b0361088e576040517f08c379a000000000000000000000000000000000000000000000000000000000815260040161088590612c24565b60405180910390fd5b60076000815461089d90612c73565b919050819055506108b46108af611018565b6113ae565b565b6108c76108c16112ed565b826114fc565b610906576040517f08c379a00000000000000000000000000000000000000000000000000000000081526004016108fd90612d0e565b60405180910390fd5b610911838383611591565b505050565b600860009054906101000a900473ffffffffffffffffffffffffffffffffffffffff1673ffffffffffffffffffffffffffffffffffffffff163373ffffffffffffffffffffffffffffffffffffffff16146109a6576040517f08c379a000000000000000000000000000000000000000000000000000000000815260040161099d90612d7a565b60405180910390fd5b6109ae61188a565b565b6109cb83838360405180602001604052806000815250610e3d565b505050565b600860009054906101000a900473ffffffffffffffffffffffffffffffffffffffff1673ffffffffffffffffffffffffffffffffffffffff163373ffffffffffffffffffffffffffffffffffffffff1614610a60576040517f08c379a0000000000000000000000000000000000000000000000000000000008152600401610a5790612d7a565b60405180910390fd5b600073ffffffffffffffffffffffffffffffffffffffff168173ffffffffffffffffffffffffffffffffffffffff1603610acf576040517f08c379a0000000000000000000000000000000000000000000000000000000008152600401610ac690612de6565b60405180910390fd5b80600860006101000a81548173ffffffffffffffffffffffffffffffffffffffff021916908373ffffffffffffffffffffffffffffffffffffffff16021790555050565b6000600660009054906101000a900460ff16905090565b600080610b36836118ed565b9050600073ffffffffffffffffffffffffffffffffffffffff168173ffffffffffffffffffffffffffffffffffffffff1603610ba7576040517f08c379a0000000000000000000000000000000000000000000000000000000008152600401610b9e90612e52565b60405180910390fd5b80915050919050565b60008073ffffffffffffffffffffffffffffffffffffffff168273ffffffffffffffffffffffffffffffffffffffff1603610c20576040517f08c379a0000000000000000000000000000000000000000000000000000000008152600401610c1790612ee4565b60405180910390fd5b600360008373ffffffffffffffffffffffffffffffffffffffff1673ffffffffffffffffffffffffffffffffffffffff168152602001908152602001600020549050919050565b60075481565b60098054610c7a90612a83565b80601f0160208091040260200160405190810160405280929190818152602001828054610ca690612a83565b8015610cf35780601f10610cc857610100808354040283529160200191610cf3565b820191906000526020600020905b815481529060010190602001808311610cd657829003601f168201915b505050505081565b600860009054906101000a900473ffffffffffffffffffffffffffffffffffffffff1673ffffffffffffffffffffffffffffffffffffffff163373ffffffffffffffffffffffffffffffffffffffff1614610d8b576040517f08c379a0000000000000000000000000000000000000000000000000000000008152600401610d8290612d7a565b60405180910390fd5b610d9361192a565b565b606060018054610da490612a83565b80601f0160208091040260200160405190810160405280929190818152602001828054610dd090612a83565b8015610e1d5780601f10610df257610100808354040283529160200191610e1d565b820191906000526020600020905b815481529060010190602001808311610e0057829003601f168201915b5050505050905090565b610e39610e326112ed565b838361198d565b5050565b610e4e610e486112ed565b836114fc565b610e8d576040517f08c379a0000000000000000000000000000000000000000000000000000000008152600401610e8490612d0e565b60405180910390fd5b610e9984848484611af9565b50505050565b610ea7611b55565b6000610eb233610bb0565b14610ef2576040517f08c379a0000000000000000000000000000000000000000000000000000000008152600401610ee990612f50565b60405180910390fd5b600760008154610f0190612f70565b91905081905550610f1933610f14611018565b611b9f565b565b6060610f26826112a2565b610f4f6009604051602001610f3b91906131b1565b604051602081830303815290604052611bbd565b604051602001610f5f919061325b565b6040516020818303038152906040529050919050565b600860009054906101000a900473ffffffffffffffffffffffffffffffffffffffff1673ffffffffffffffffffffffffffffffffffffffff163373ffffffffffffffffffffffffffffffffffffffff1614611005576040517f08c379a0000000000000000000000000000000000000000000000000000000008152600401610ffc90612d7a565b60405180910390fd5b80600a90816110149190613414565b5050565b60003360405160200161102b919061352e565b6040516020818303038152906040528051906020012060001c905090565b6060600a805461105890612a83565b80601f016020809104026020016040519081016040528092919081815260200182805461108490612a83565b80156110d15780601f106110a6576101008083540402835291602001916110d1565b820191906000526020600020905b8154815290600101906020018083116110b457829003601f168201915b5050505050905090565b6000600560008473ffffffffffffffffffffffffffffffffffffffff1673ffffffffffffffffffffffffffffffffffffffff16815260200190815260200160002060008373ffffffffffffffffffffffffffffffffffffffff1673ffffffffffffffffffffffffffffffffffffffff16815260200190815260200160002060009054906101000a900460ff16905092915050565b600860009054906101000a900473ffffffffffffffffffffffffffffffffffffffff1673ffffffffffffffffffffffffffffffffffffffff163373ffffffffffffffffffffffffffffffffffffffff16146111ff576040517f08c379a00000000000000000000000000000000000000000000000000000000081526004016111f690612d7a565b60405180910390fd5b806009908161120e9190613414565b5050565b600860009054906101000a900473ffffffffffffffffffffffffffffffffffffffff1681565b60007f01ffc9a7000000000000000000000000000000000000000000000000000000007bffffffffffffffffffffffffffffffffffffffffffffffffffffffff1916827bffffffffffffffffffffffffffffffffffffffffffffffffffffffff1916149050919050565b6112ab81611d20565b6112ea576040517f08c379a00000000000000000000000000000000000000000000000000000000081526004016112e190612e52565b60405180910390fd5b50565b600033905090565b816004600083815260200190815260200160002060006101000a81548173ffffffffffffffffffffffffffffffffffffffff021916908373ffffffffffffffffffffffffffffffffffffffff160217905550808273ffffffffffffffffffffffffffffffffffffffff1661136883610b2a565b73ffffffffffffffffffffffffffffffffffffffff167f8c5be1e5ebec7d5bd14f71427d1e84f3dd0314c0f7b2291e5b200ac8c7c3b92560405160405180910390a45050565b60006113b982610b2a565b90506113c9816000846001611d61565b6113d282610b2a565b90506004600083815260200190815260200160002060006101000a81549073ffffffffffffffffffffffffffffffffffffffff02191690556001600360008373ffffffffffffffffffffffffffffffffffffffff1673ffffffffffffffffffffffffffffffffffffffff168152602001908152602001600020600082825403925050819055506002600083815260200190815260200160002060006101000a81549073ffffffffffffffffffffffffffffffffffffffff021916905581600073ffffffffffffffffffffffffffffffffffffffff168273ffffffffffffffffffffffffffffffffffffffff167fddf252ad1be2c89b69c2b068fc378daa952ba7f163c4a11628f55a4df523b3ef60405160405180910390a46114f8816000846001611e19565b5050565b60008061150883610b2a565b90508073ffffffffffffffffffffffffffffffffffffffff168473ffffffffffffffffffffffffffffffffffffffff16148061154a575061154981856110db565b5b8061158857508373ffffffffffffffffffffffffffffffffffffffff1661157084610658565b73ffffffffffffffffffffffffffffffffffffffff16145b91505092915050565b8273ffffffffffffffffffffffffffffffffffffffff166115b182610b2a565b73ffffffffffffffffffffffffffffffffffffffff1614611607576040517f08c379a00000000000000000000000000000000000000000000000000000000081526004016115fe906135bb565b60405180910390fd5b600073ffffffffffffffffffffffffffffffffffffffff168273ffffffffffffffffffffffffffffffffffffffff1603611676576040517f08c379a000000000000000000000000000000000000000000000000000000000815260040161166d9061364d565b60405180910390fd5b6116838383836001611d61565b8273ffffffffffffffffffffffffffffffffffffffff166116a382610b2a565b73ffffffffffffffffffffffffffffffffffffffff16146116f9576040517f08c379a00000000000000000000000000000000000000000000000000000000081526004016116f0906135bb565b60405180910390fd5b6004600082815260200190815260200160002060006101000a81549073ffffffffffffffffffffffffffffffffffffffff02191690556001600360008573ffffffffffffffffffffffffffffffffffffffff1673ffffffffffffffffffffffffffffffffffffffff168152602001908152602001600020600082825403925050819055506001600360008473ffffffffffffffffffffffffffffffffffffffff1673ffffffffffffffffffffffffffffffffffffffff16815260200190815260200160002060008282540192505081905550816002600083815260200190815260200160002060006101000a81548173ffffffffffffffffffffffffffffffffffffffff021916908373ffffffffffffffffffffffffffffffffffffffff160217905550808273ffffffffffffffffffffffffffffffffffffffff168473ffffffffffffffffffffffffffffffffffffffff167fddf252ad1be2c89b69c2b068fc378daa952ba7f163c4a11628f55a4df523b3ef60405160405180910390a46118858383836001611e19565b505050565b611892611e1f565b6000600660006101000a81548160ff0219169083151502179055507f5db9ee0a495bf2e6ff9c91a7834c1ba4fdd244a5e8aa4e537bd38aeae4b073aa6118d66112ed565b6040516118e391906125d5565b60405180910390a1565b60006002600083815260200190815260200160002060009054906101000a900473ffffffffffffffffffffffffffffffffffffffff169050919050565b611932611b55565b6001600660006101000a81548160ff0219169083151502179055507f62e78cea01bee320cd4e420270b5ea74000d11b0c9f74754ebdbfc544b05a2586119766112ed565b60405161198391906125d5565b60405180910390a1565b8173ffffffffffffffffffffffffffffffffffffffff168373ffffffffffffffffffffffffffffffffffffffff16036119fb576040517f08c379a00000000000000000000000000000000000000000000000000000000081526004016119f2906136b9565b60405180910390fd5b80600560008573ffffffffffffffffffffffffffffffffffffffff1673ffffffffffffffffffffffffffffffffffffffff16815260200190815260200160002060008473ffffffffffffffffffffffffffffffffffffffff1673ffffffffffffffffffffffffffffffffffffffff16815260200190815260200160002060006101000a81548160ff0219169083151502179055508173ffffffffffffffffffffffffffffffffffffffff168373ffffffffffffffffffffffffffffffffffffffff167f17307eab39ab6107e8899845ad3d59bd9653f200f220920489ca2b5937696c3183604051611aec9190612464565b60405180910390a3505050565b611b04848484611591565b611b1084848484611e68565b611b4f576040517f08c379a0000000000000000000000000000000000000000000000000000000008152600401611b469061374b565b60405180910390fd5b50505050565b611b5d610b13565b15611b9d576040517f08c379a0000000000000000000000000000000000000000000000000000000008152600401611b94906137b7565b60405180910390fd5b565b611bb9828260405180602001604052806000815250611fef565b5050565b60606000825103611bdf57604051806020016040528060008152509050611d1b565b6000604051806060016040528060408152602001613b756040913990506000600360028551611c0e91906137d7565b611c18919061383a565b6004611c24919061386b565b67ffffffffffffffff811115611c3d57611c3c61277c565b5b6040519080825280601f01601f191660200182016040528015611c6f5781602001600182028036833780820191505090505b509050600182016020820185865187015b80821015611cdb576003820191508151603f8160121c168501518453600184019350603f81600c1c168501518453600184019350603f8160061c168501518453600184019350603f8116850151845360018401935050611c80565b5050600386510660018114611cf75760028114611d0a57611d12565b603d6001830353603d6002830353611d12565b603d60018303535b50505080925050505b919050565b60008073ffffffffffffffffffffffffffffffffffffffff16611d42836118ed565b73ffffffffffffffffffffffffffffffffffffffff1614159050919050565b600073ffffffffffffffffffffffffffffffffffffffff168473ffffffffffffffffffffffffffffffffffffffff161480611dc85750600073ffffffffffffffffffffffffffffffffffffffff168373ffffffffffffffffffffffffffffffffffffffff16145b611e07576040517f08c379a0000000000000000000000000000000000000000000000000000000008152600401611dfe906138f9565b60405180910390fd5b611e138484848461204a565b50505050565b50505050565b611e27610b13565b611e66576040517f08c379a0000000000000000000000000000000000000000000000000000000008152600401611e5d90613965565b60405180910390fd5b565b6000611e898473ffffffffffffffffffffffffffffffffffffffff16612170565b15611fe2578373ffffffffffffffffffffffffffffffffffffffff1663150b7a02611eb26112ed565b8786866040518563ffffffff1660e01b8152600401611ed494939291906139da565b6020604051808303816000875af1925050508015611f1057506040513d601f19601f82011682018060405250810190611f0d9190613a3b565b60015b611f92573d8060008114611f40576040519150601f19603f3d011682016040523d82523d6000602084013e611f45565b606091505b506000815103611f8a576040517f08c379a0000000000000000000000000000000000000000000000000000000008152600401611f819061374b565b60405180910390fd5b805181602001fd5b63150b7a0260e01b7bffffffffffffffffffffffffffffffffffffffffffffffffffffffff1916817bffffffffffffffffffffffffffffffffffffffffffffffffffffffff191614915050611fe7565b600190505b949350505050565b611ff98383612193565b6120066000848484611e68565b612045576040517f08c379a000000000000000000000000000000000000000000000000000000000815260040161203c9061374b565b60405180910390fd5b505050565b600181111561216a57600073ffffffffffffffffffffffffffffffffffffffff168473ffffffffffffffffffffffffffffffffffffffff16146120de5780600360008673ffffffffffffffffffffffffffffffffffffffff1673ffffffffffffffffffffffffffffffffffffffff16815260200190815260200160002060008282546120d69190613a68565b925050819055505b600073ffffffffffffffffffffffffffffffffffffffff168373ffffffffffffffffffffffffffffffffffffffff16146121695780600360008573ffffffffffffffffffffffffffffffffffffffff1673ffffffffffffffffffffffffffffffffffffffff168152602001908152602001600020600082825461216191906137d7565b925050819055505b5b50505050565b6000808273ffffffffffffffffffffffffffffffffffffffff163b119050919050565b600073ffffffffffffffffffffffffffffffffffffffff168273ffffffffffffffffffffffffffffffffffffffff1603612202576040517f08c379a00000000000000000000000000000000000000000000000000000000081526004016121f990613ae8565b60405180910390fd5b61220b81611d20565b1561224b576040517f08c379a000000000000000000000000000000000000000000000000000000000815260040161224290613b54565b60405180910390fd5b612259600083836001611d61565b61226281611d20565b156122a2576040517f08c379a000000000000000000000000000000000000000000000000000000000815260040161229990613b54565b60405180910390fd5b6001600360008473ffffffffffffffffffffffffffffffffffffffff1673ffffffffffffffffffffffffffffffffffffffff16815260200190815260200160002060008282540192505081905550816002600083815260200190815260200160002060006101000a81548173ffffffffffffffffffffffffffffffffffffffff021916908373ffffffffffffffffffffffffffffffffffffffff160217905550808273ffffffffffffffffffffffffffffffffffffffff16600073ffffffffffffffffffffffffffffffffffffffff167fddf252ad1be2c89b69c2b068fc378daa952ba7f163c4a11628f55a4df523b3ef60405160405180910390a46123ac600083836001611e19565b5050565b6000604051905090565b600080fd5b600080fd5b60007fffffffff0000000000000000000000000000000000000000000000000000000082169050919050565b6123f9816123c4565b811461240457600080fd5b50565b600081359050612416816123f0565b92915050565b600060208284031215612432576124316123ba565b5b600061244084828501612407565b91505092915050565b60008115159050919050565b61245e81612449565b82525050565b60006020820190506124796000830184612455565b92915050565b600081519050919050565b600082825260208201905092915050565b60005b838110156124b957808201518184015260208101905061249e565b60008484015250505050565b6000601f19601f8301169050919050565b60006124e18261247f565b6124eb818561248a565b93506124fb81856020860161249b565b612504816124c5565b840191505092915050565b6000602082019050818103600083015261252981846124d6565b905092915050565b6000819050919050565b61254481612531565b811461254f57600080fd5b50565b6000813590506125618161253b565b92915050565b60006020828403121561257d5761257c6123ba565b5b600061258b84828501612552565b91505092915050565b600073ffffffffffffffffffffffffffffffffffffffff82169050919050565b60006125bf82612594565b9050919050565b6125cf816125b4565b82525050565b60006020820190506125ea60008301846125c6565b92915050565b6125f9816125b4565b811461260457600080fd5b50565b600081359050612616816125f0565b92915050565b60008060408385031215612633576126326123ba565b5b600061264185828601612607565b925050602061265285828601612552565b9150509250929050565b600080600060608486031215612675576126746123ba565b5b600061268386828701612607565b935050602061269486828701612607565b92505060406126a586828701612552565b9150509250925092565b6000602082840312156126c5576126c46123ba565b5b60006126d384828501612607565b91505092915050565b6126e581612531565b82525050565b600060208201905061270060008301846126dc565b92915050565b61270f81612449565b811461271a57600080fd5b50565b60008135905061272c81612706565b92915050565b60008060408385031215612749576127486123ba565b5b600061275785828601612607565b92505060206127688582860161271d565b9150509250929050565b600080fd5b600080fd5b7f4e487b7100000000000000000000000000000000000000000000000000000000600052604160045260246000fd5b6127b4826124c5565b810181811067ffffffffffffffff821117156127d3576127d261277c565b5b80604052505050565b60006127e66123b0565b90506127f282826127ab565b919050565b600067ffffffffffffffff8211156128125761281161277c565b5b61281b826124c5565b9050602081019050919050565b82818337600083830152505050565b600061284a612845846127f7565b6127dc565b90508281526020810184848401111561286657612865612777565b5b612871848285612828565b509392505050565b600082601f83011261288e5761288d612772565b5b813561289e848260208601612837565b91505092915050565b600080600080608085870312156128c1576128c06123ba565b5b60006128cf87828801612607565b94505060206128e087828801612607565b93505060406128f187828801612552565b925050606085013567ffffffffffffffff811115612912576129116123bf565b5b61291e87828801612879565b91505092959194509250565b600067ffffffffffffffff8211156129455761294461277c565b5b61294e826124c5565b9050602081019050919050565b600061296e6129698461292a565b6127dc565b90508281526020810184848401111561298a57612989612777565b5b612995848285612828565b509392505050565b600082601f8301126129b2576129b1612772565b5b81356129c284826020860161295b565b91505092915050565b6000602082840312156129e1576129e06123ba565b5b600082013567ffffffffffffffff8111156129ff576129fe6123bf565b5b612a0b8482850161299d565b91505092915050565b60008060408385031215612a2b57612a2a6123ba565b5b6000612a3985828601612607565b9250506020612a4a85828601612607565b9150509250929050565b7f4e487b7100000000000000000000000000000000000000000000000000000000600052602260045260246000fd5b60006002820490506001821680612a9b57607f821691505b602082108103612aae57612aad612a54565b5b50919050565b7f4552433732313a20617070726f76616c20746f2063757272656e74206f776e6560008201527f7200000000000000000000000000000000000000000000000000000000000000602082015250565b6000612b1060218361248a565b9150612b1b82612ab4565b604082019050919050565b60006020820190508181036000830152612b3f81612b03565b9050919050565b7f4552433732313a20617070726f76652063616c6c6572206973206e6f7420746f60008201527f6b656e206f776e6572206f7220617070726f76656420666f7220616c6c000000602082015250565b6000612ba2603d8361248a565b9150612bad82612b46565b604082019050919050565b60006020820190508181036000830152612bd181612b95565b9050919050565b7f4f6e6c7920746865206f776e65722063616e206275726e000000000000000000600082015250565b6000612c0e60178361248a565b9150612c1982612bd8565b602082019050919050565b60006020820190508181036000830152612c3d81612c01565b9050919050565b7f4e487b7100000000000000000000000000000000000000000000000000000000600052601160045260246000fd5b6000612c7e82612531565b915060008203612c9157612c90612c44565b5b600182039050919050565b7f4552433732313a2063616c6c6572206973206e6f7420746f6b656e206f776e6560008201527f72206f7220617070726f76656400000000000000000000000000000000000000602082015250565b6000612cf8602d8361248a565b9150612d0382612c9c565b604082019050919050565b60006020820190508181036000830152612d2781612ceb565b9050919050565b7f4f6e6c792061646d696e00000000000000000000000000000000000000000000600082015250565b6000612d64600a8361248a565b9150612d6f82612d2e565b602082019050919050565b60006020820190508181036000830152612d9381612d57565b9050919050565b7f4e65772041646d696e20697320746865207a65726f2061646472657373000000600082015250565b6000612dd0601d8361248a565b9150612ddb82612d9a565b602082019050919050565b60006020820190508181036000830152612dff81612dc3565b9050919050565b7f4552433732313a20696e76616c696420746f6b656e2049440000000000000000600082015250565b6000612e3c60188361248a565b9150612e4782612e06565b602082019050919050565b60006020820190508181036000830152612e6b81612e2f565b9050919050565b7f4552433732313a2061646472657373207a65726f206973206e6f74206120766160008201527f6c6964206f776e65720000000000000000000000000000000000000000000000602082015250565b6000612ece60298361248a565b9150612ed982612e72565b604082019050919050565b60006020820190508181036000830152612efd81612ec1565b9050919050565b7f596f75206861766120616c7265616479206d696e746564000000000000000000600082015250565b6000612f3a60178361248a565b9150612f4582612f04565b602082019050919050565b60006020820190508181036000830152612f6981612f2d565b9050919050565b6000612f7b82612531565b91507fffffffffffffffffffffffffffffffffffffffffffffffffffffffffffffffff8203612fad57612fac612c44565b5b600182019050919050565b600081905092915050565b7f7b22696d616765223a2022000000000000000000000000000000000000000000600082015250565b6000612ff9600b83612fb8565b915061300482612fc3565b600b82019050919050565b60008190508160005260206000209050919050565b6000815461303181612a83565b61303b8186612fb8565b94506001821660008114613056576001811461306b5761309e565b60ff198316865281151582028601935061309e565b6130748561300f565b60005b8381101561309657815481890152600182019150602081019050613077565b838801955050505b50505092915050565b7f222c202265787465726e616c5f75726c223a202268747470733a2f2f6574686560008201527f7265756d2e6f72672f222c20226465736372697074696f6e223a2022746f6b6560208201527f6e555249206465736372697074696f6e2e20746f6b656e55524920646573637260408201527f697074696f6e2e222c20226e616d65223a202254657374204e465420506c617960608201527f6572222c20226261636b67726f756e645f636f6c6f72223a202230303030303060808201527f227d00000000000000000000000000000000000000000000000000000000000060a082015250565b600061319b60a283612fb8565b91506131a6826130a7565b60a282019050919050565b60006131bc82612fec565b91506131c88284613024565b91506131d38261318e565b915081905092915050565b7f646174613a6170706c69636174696f6e2f6a736f6e3b6261736536342c000000600082015250565b6000613214601d83612fb8565b915061321f826131de565b601d82019050919050565b60006132358261247f565b61323f8185612fb8565b935061324f81856020860161249b565b80840191505092915050565b600061326682613207565b9150613272828461322a565b915081905092915050565b60006020601f8301049050919050565b600082821b905092915050565b6000600883026132ca7fffffffffffffffffffffffffffffffffffffffffffffffffffffffffffffffff8261328d565b6132d4868361328d565b95508019841693508086168417925050509392505050565b6000819050919050565b600061331161330c61330784612531565b6132ec565b612531565b9050919050565b6000819050919050565b61332b836132f6565b61333f61333782613318565b84845461329a565b825550505050565b600090565b613354613347565b61335f818484613322565b505050565b5b818110156133835761337860008261334c565b600181019050613365565b5050565b601f8211156133c8576133998161300f565b6133a28461327d565b810160208510156133b1578190505b6133c56133bd8561327d565b830182613364565b50505b505050565b600082821c905092915050565b60006133eb600019846008026133cd565b1980831691505092915050565b600061340483836133da565b9150826002028217905092915050565b61341d8261247f565b67ffffffffffffffff8111156134365761343561277c565b5b6134408254612a83565b61344b828285613387565b600060209050601f83116001811461347e576000841561346c578287015190505b61347685826133f8565b8655506134de565b601f19841661348c8661300f565b60005b828110156134b45784890151825560018201915060208501945060208101905061348f565b868310156134d157848901516134cd601f8916826133da565b8355505b6001600288020188555050505b505050505050565b60008160601b9050919050565b60006134fe826134e6565b9050919050565b6000613510826134f3565b9050919050565b613528613523826125b4565b613505565b82525050565b600061353a8284613517565b60148201915081905092915050565b7f4552433732313a207472616e736665722066726f6d20696e636f72726563742060008201527f6f776e6572000000000000000000000000000000000000000000000000000000602082015250565b60006135a560258361248a565b91506135b082613549565b604082019050919050565b600060208201905081810360008301526135d481613598565b9050919050565b7f4552433732313a207472616e7366657220746f20746865207a65726f2061646460008201527f7265737300000000000000000000000000000000000000000000000000000000602082015250565b600061363760248361248a565b9150613642826135db565b604082019050919050565b600060208201905081810360008301526136668161362a565b9050919050565b7f4552433732313a20617070726f766520746f2063616c6c657200000000000000600082015250565b60006136a360198361248a565b91506136ae8261366d565b602082019050919050565b600060208201905081810360008301526136d281613696565b9050919050565b7f4552433732313a207472616e7366657220746f206e6f6e20455243373231526560008201527f63656976657220696d706c656d656e7465720000000000000000000000000000602082015250565b600061373560328361248a565b9150613740826136d9565b604082019050919050565b6000602082019050818103600083015261376481613728565b9050919050565b7f5061757361626c653a2070617573656400000000000000000000000000000000600082015250565b60006137a160108361248a565b91506137ac8261376b565b602082019050919050565b600060208201905081810360008301526137d081613794565b9050919050565b60006137e282612531565b91506137ed83612531565b925082820190508082111561380557613804612c44565b5b92915050565b7f4e487b7100000000000000000000000000000000000000000000000000000000600052601260045260246000fd5b600061384582612531565b915061385083612531565b9250826138605761385f61380b565b5b828204905092915050565b600061387682612531565b915061388183612531565b925082820261388f81612531565b915082820484148315176138a6576138a5612c44565b5b5092915050565b7f43616e6e6f74207472616e7366657220746f206f746865727300000000000000600082015250565b60006138e360198361248a565b91506138ee826138ad565b602082019050919050565b60006020820190508181036000830152613912816138d6565b9050919050565b7f5061757361626c653a206e6f7420706175736564000000000000000000000000600082015250565b600061394f60148361248a565b915061395a82613919565b602082019050919050565b6000602082019050818103600083015261397e81613942565b9050919050565b600081519050919050565b600082825260208201905092915050565b60006139ac82613985565b6139b68185613990565b93506139c681856020860161249b565b6139cf816124c5565b840191505092915050565b60006080820190506139ef60008301876125c6565b6139fc60208301866125c6565b613a0960408301856126dc565b8181036060830152613a1b81846139a1565b905095945050505050565b600081519050613a35816123f0565b92915050565b600060208284031215613a5157613a506123ba565b5b6000613a5f84828501613a26565b91505092915050565b6000613a7382612531565b9150613a7e83612531565b9250828203905081811115613a9657613a95612c44565b5b92915050565b7f4552433732313a206d696e7420746f20746865207a65726f2061646472657373600082015250565b6000613ad260208361248a565b9150613add82613a9c565b602082019050919050565b60006020820190508181036000830152613b0181613ac5565b9050919050565b7f4552433732313a20746f6b656e20616c7265616479206d696e74656400000000600082015250565b6000613b3e601c8361248a565b9150613b4982613b08565b602082019050919050565b60006020820190508181036000830152613b6d81613b31565b905091905056fe4142434445464748494a4b4c4d4e4f505152535455565758595a6162636465666768696a6b6c6d6e6f707172737475767778797a303132333435363738392b2fa26469706673582212200790508fc9fe3629c2e5ee135529796c71ebaaa6f993902411b51886cb58064d64736f6c63430008110033697066733a2f2f516d5576786d7342716a427353636943396f4c4a6e5642715a4b58446b6773793637576e5241326f486338386237697066733a2f2f516d6539314535625639465575526834557339684d79686f626673564b5133756934415138374e6f71724c684765",
  "linkReferences": {},
  "deployedLinkReferences": {}
}